{
  "_format": "hh-sol-artifact-1",
  "contractName": "FundMe",
  "sourceName": "contracts/FundMe.sol",
  "abi": [
    {
      "inputs": [
        {
          "internalType": "uint256",
          "name": "_lockTime",
          "type": "uint256"
        }
      ],
      "stateMutability": "nonpayable",
      "type": "constructor"
    },
    {
      "inputs": [],
      "name": "dataFeed",
      "outputs": [
        {
          "internalType": "contract AggregatorV3Interface",
          "name": "",
          "type": "address"
        }
      ],
      "stateMutability": "view",
      "type": "function"
    },
    {
      "inputs": [],
      "name": "fund",
      "outputs": [],
      "stateMutability": "payable",
      "type": "function"
    },
    {
      "inputs": [
        {
          "internalType": "address",
          "name": "",
          "type": "address"
        }
      ],
      "name": "fundersToAmount",
      "outputs": [
        {
          "internalType": "uint256",
          "name": "",
          "type": "uint256"
        }
      ],
      "stateMutability": "view",
      "type": "function"
    },
    {
      "inputs": [],
      "name": "getChainlinkDataFeedLatestAnswer",
      "outputs": [
        {
          "internalType": "int256",
          "name": "",
          "type": "int256"
        }
      ],
      "stateMutability": "view",
      "type": "function"
    },
    {
      "inputs": [],
      "name": "getFund",
      "outputs": [],
      "stateMutability": "nonpayable",
      "type": "function"
    },
    {
      "inputs": [],
      "name": "getFundSuccess",
      "outputs": [
        {
          "internalType": "bool",
          "name": "",
          "type": "bool"
        }
      ],
      "stateMutability": "view",
      "type": "function"
    },
    {
      "inputs": [],
      "name": "owner",
      "outputs": [
        {
          "internalType": "address",
          "name": "",
          "type": "address"
        }
      ],
      "stateMutability": "view",
      "type": "function"
    },
    {
      "inputs": [],
      "name": "refund",
      "outputs": [],
      "stateMutability": "nonpayable",
      "type": "function"
    },
    {
      "inputs": [
        {
          "internalType": "address",
          "name": "_erc20Addr",
          "type": "address"
        }
      ],
      "name": "setErc20Addr",
      "outputs": [],
      "stateMutability": "nonpayable",
      "type": "function"
    },
    {
      "inputs": [
        {
          "internalType": "address",
          "name": "funder",
          "type": "address"
        },
        {
          "internalType": "uint256",
          "name": "amountToUpdate",
          "type": "uint256"
        }
      ],
      "name": "setFunderToAmount",
      "outputs": [],
      "stateMutability": "nonpayable",
      "type": "function"
    },
    {
      "inputs": [
        {
          "internalType": "address",
          "name": "newOwner",
          "type": "address"
        }
      ],
      "name": "transferOwnership",
      "outputs": [],
      "stateMutability": "nonpayable",
      "type": "function"
    }
  ],
  "bytecode": "0x60806040526000600560146101000a81548160ff02191690831515021790555034801561002b57600080fd5b506040516115e03803806115e0833981810160405281019061004d9190610132565b73694aa1769357215de4fac081bf1f309adc325306600160006101000a81548173ffffffffffffffffffffffffffffffffffffffff021916908373ffffffffffffffffffffffffffffffffffffffff16021790555033600260006101000a81548173ffffffffffffffffffffffffffffffffffffffff021916908373ffffffffffffffffffffffffffffffffffffffff16021790555042600381905550806004819055505061015f565b600080fd5b6000819050919050565b61010f816100fc565b811461011a57600080fd5b50565b60008151905061012c81610106565b92915050565b600060208284031215610148576101476100f7565b5b60006101568482850161011d565b91505092915050565b6114728061016e6000396000f3fe60806040526004361061009c5760003560e01c80639f883a05116100645780639f883a051461014e578063b60d42881461018b578063bea4dfb514610195578063d39cf006146101c0578063da4658e0146101e9578063f2fde38b146102145761009c565b806313ffff01146100a1578063590e1ae3146100ca5780638da5cb5b146100e15780638edd6eb61461010c5780639e42ff9014610123575b600080fd5b3480156100ad57600080fd5b506100c860048036038101906100c39190610bef565b61023d565b005b3480156100d657600080fd5b506100df610311565b005b3480156100ed57600080fd5b506100f661056a565b6040516101039190610c2b565b60405180910390f35b34801561011857600080fd5b50610121610590565b005b34801561012f57600080fd5b506101386107d6565b6040516101459190610ca5565b60405180910390f35b34801561015a57600080fd5b5061017560048036038101906101709190610bef565b6107fc565b6040516101829190610cd9565b60405180910390f35b610193610814565b005b3480156101a157600080fd5b506101aa6108fd565b6040516101b79190610d0d565b60405180910390f35b3480156101cc57600080fd5b506101e760048036038101906101e29190610d54565b61099e565b005b3480156101f557600080fd5b506101fe610a75565b60405161020b9190610daf565b60405180910390f35b34801561022057600080fd5b5061023b60048036038101906102369190610bef565b610a88565b005b600260009054906101000a900473ffffffffffffffffffffffffffffffffffffffff1673ffffffffffffffffffffffffffffffffffffffff163373ffffffffffffffffffffffffffffffffffffffff16146102cd576040517f08c379a00000000000000000000000000000000000000000000000000000000081526004016102c490610e4d565b60405180910390fd5b80600560006101000a81548173ffffffffffffffffffffffffffffffffffffffff021916908373ffffffffffffffffffffffffffffffffffffffff16021790555050565b6004546003546103219190610e9c565b421015610363576040517f08c379a000000000000000000000000000000000000000000000000000000000815260040161035a90610f1c565b60405180910390fd5b683635c9adc5dea0000061037647610b5c565b106103b6576040517f08c379a00000000000000000000000000000000000000000000000000000000081526004016103ad90610f88565b60405180910390fd5b60008060003373ffffffffffffffffffffffffffffffffffffffff1673ffffffffffffffffffffffffffffffffffffffff1681526020019081526020016000205403610437576040517f08c379a000000000000000000000000000000000000000000000000000000000815260040161042e90610ff4565b60405180910390fd5b60003373ffffffffffffffffffffffffffffffffffffffff166000803373ffffffffffffffffffffffffffffffffffffffff1673ffffffffffffffffffffffffffffffffffffffff1681526020019081526020016000205460405161049b90611045565b60006040518083038185875af1925050503d80600081146104d8576040519150601f19603f3d011682016040523d82523d6000602084013e6104dd565b606091505b50508091505080610523576040517f08c379a000000000000000000000000000000000000000000000000000000000815260040161051a906110a6565b60405180910390fd5b60008060003373ffffffffffffffffffffffffffffffffffffffff1673ffffffffffffffffffffffffffffffffffffffff1681526020019081526020016000208190555050565b600260009054906101000a900473ffffffffffffffffffffffffffffffffffffffff1681565b6004546003546105a09190610e9c565b4210156105e2576040517f08c379a00000000000000000000000000000000000000000000000000000000081526004016105d990610f1c565b60405180910390fd5b600260009054906101000a900473ffffffffffffffffffffffffffffffffffffffff1673ffffffffffffffffffffffffffffffffffffffff163373ffffffffffffffffffffffffffffffffffffffff1614610672576040517f08c379a000000000000000000000000000000000000000000000000000000000815260040161066990610e4d565b60405180910390fd5b683635c9adc5dea0000061068547610b5c565b10156106c6576040517f08c379a00000000000000000000000000000000000000000000000000000000081526004016106bd90611112565b60405180910390fd5b60003373ffffffffffffffffffffffffffffffffffffffff16476040516106ec90611045565b60006040518083038185875af1925050503d8060008114610729576040519150601f19603f3d011682016040523d82523d6000602084013e61072e565b606091505b50508091505080610774576040517f08c379a000000000000000000000000000000000000000000000000000000000815260040161076b906110a6565b60405180910390fd5b60008060003373ffffffffffffffffffffffffffffffffffffffff1673ffffffffffffffffffffffffffffffffffffffff168152602001908152602001600020819055506001600560146101000a81548160ff02191690831515021790555050565b600160009054906101000a900473ffffffffffffffffffffffffffffffffffffffff1681565b60006020528060005260406000206000915090505481565b678ac7230489e8000061082634610b5c565b1015610867576040517f08c379a000000000000000000000000000000000000000000000000000000000815260040161085e9061117e565b60405180910390fd5b6004546003546108779190610e9c565b42106108b8576040517f08c379a00000000000000000000000000000000000000000000000000000000081526004016108af906111ea565b60405180910390fd5b346000803373ffffffffffffffffffffffffffffffffffffffff1673ffffffffffffffffffffffffffffffffffffffff16815260200190815260200160002081905550565b600080600160009054906101000a900473ffffffffffffffffffffffffffffffffffffffff1673ffffffffffffffffffffffffffffffffffffffff1663feaf968c6040518163ffffffff1660e01b815260040160a060405180830381865afa15801561096d573d6000803e3d6000fd5b505050506040513d601f19601f82011682018060405250810190610991919061128d565b5050509150508091505090565b600560009054906101000a900473ffffffffffffffffffffffffffffffffffffffff1673ffffffffffffffffffffffffffffffffffffffff163373ffffffffffffffffffffffffffffffffffffffff1614610a2e576040517f08c379a0000000000000000000000000000000000000000000000000000000008152600401610a259061137a565b60405180910390fd5b806000808473ffffffffffffffffffffffffffffffffffffffff1673ffffffffffffffffffffffffffffffffffffffff168152602001908152602001600020819055505050565b600560149054906101000a900460ff1681565b600260009054906101000a900473ffffffffffffffffffffffffffffffffffffffff1673ffffffffffffffffffffffffffffffffffffffff163373ffffffffffffffffffffffffffffffffffffffff1614610b18576040517f08c379a0000000000000000000000000000000000000000000000000000000008152600401610b0f90610e4d565b60405180910390fd5b80600260006101000a81548173ffffffffffffffffffffffffffffffffffffffff021916908373ffffffffffffffffffffffffffffffffffffffff16021790555050565b600080610b676108fd565b90506305f5e1008184610b7a919061139a565b610b84919061140b565b915050919050565b600080fd5b600073ffffffffffffffffffffffffffffffffffffffff82169050919050565b6000610bbc82610b91565b9050919050565b610bcc81610bb1565b8114610bd757600080fd5b50565b600081359050610be981610bc3565b92915050565b600060208284031215610c0557610c04610b8c565b5b6000610c1384828501610bda565b91505092915050565b610c2581610bb1565b82525050565b6000602082019050610c406000830184610c1c565b92915050565b6000819050919050565b6000610c6b610c66610c6184610b91565b610c46565b610b91565b9050919050565b6000610c7d82610c50565b9050919050565b6000610c8f82610c72565b9050919050565b610c9f81610c84565b82525050565b6000602082019050610cba6000830184610c96565b92915050565b6000819050919050565b610cd381610cc0565b82525050565b6000602082019050610cee6000830184610cca565b92915050565b6000819050919050565b610d0781610cf4565b82525050565b6000602082019050610d226000830184610cfe565b92915050565b610d3181610cc0565b8114610d3c57600080fd5b50565b600081359050610d4e81610d28565b92915050565b60008060408385031215610d6b57610d6a610b8c565b5b6000610d7985828601610bda565b9250506020610d8a85828601610d3f565b9150509250929050565b60008115159050919050565b610da981610d94565b82525050565b6000602082019050610dc46000830184610da0565b92915050565b600082825260208201905092915050565b7f746869732066756e6374696f6e2063616e206f6e6c792062652063616c6c656460008201527f206279206f776e65720000000000000000000000000000000000000000000000602082015250565b6000610e37602983610dca565b9150610e4282610ddb565b604082019050919050565b60006020820190508181036000830152610e6681610e2a565b9050919050565b7f4e487b7100000000000000000000000000000000000000000000000000000000600052601160045260246000fd5b6000610ea782610cc0565b9150610eb283610cc0565b9250828201905080821115610eca57610ec9610e6d565b5b92915050565b7f77696e646f77206973206e6f7420636c6f736564000000000000000000000000600082015250565b6000610f06601483610dca565b9150610f1182610ed0565b602082019050919050565b60006020820190508181036000830152610f3581610ef9565b9050919050565b7f5461726765742069732072656163686564000000000000000000000000000000600082015250565b6000610f72601183610dca565b9150610f7d82610f3c565b602082019050919050565b60006020820190508181036000830152610fa181610f65565b9050919050565b7f7468657265206973206e6f2066756e6420666f7220796f750000000000000000600082015250565b6000610fde601883610dca565b9150610fe982610fa8565b602082019050919050565b6000602082019050818103600083015261100d81610fd1565b9050919050565b600081905092915050565b50565b600061102f600083611014565b915061103a8261101f565b600082019050919050565b600061105082611022565b9150819050919050565b7f7472616e73666572207478206661696c65640000000000000000000000000000600082015250565b6000611090601283610dca565b915061109b8261105a565b602082019050919050565b600060208201905081810360008301526110bf81611083565b9050919050565b7f546172676574206973206e6f7420726561636865640000000000000000000000600082015250565b60006110fc601583610dca565b9150611107826110c6565b602082019050919050565b6000602082019050818103600083015261112b816110ef565b9050919050565b7f53656e64206d6f72652045544800000000000000000000000000000000000000600082015250565b6000611168600d83610dca565b915061117382611132565b602082019050919050565b600060208201905081810360008301526111978161115b565b9050919050565b7f77696e646f7720697320636c6f73656400000000000000000000000000000000600082015250565b60006111d4601083610dca565b91506111df8261119e565b602082019050919050565b60006020820190508181036000830152611203816111c7565b9050919050565b600069ffffffffffffffffffff82169050919050565b6112298161120a565b811461123457600080fd5b50565b60008151905061124681611220565b92915050565b61125581610cf4565b811461126057600080fd5b50565b6000815190506112728161124c565b92915050565b60008151905061128781610d28565b92915050565b600080600080600060a086880312156112a9576112a8610b8c565b5b60006112b788828901611237565b95505060206112c888828901611263565b94505060406112d988828901611278565b93505060606112ea88828901611278565b92505060806112fb88828901611237565b9150509295509295909350565b7f796f7520646f206e6f742068617665207065726d697373696f6e20746f20636160008201527f6c6c20746869732066756e74696f6e0000000000000000000000000000000000602082015250565b6000611364602f83610dca565b915061136f82611308565b604082019050919050565b6000602082019050818103600083015261139381611357565b9050919050565b60006113a582610cc0565b91506113b083610cc0565b92508282026113be81610cc0565b915082820484148315176113d5576113d4610e6d565b5b5092915050565b7f4e487b7100000000000000000000000000000000000000000000000000000000600052601260045260246000fd5b600061141682610cc0565b915061142183610cc0565b925082611431576114306113dc565b5b82820490509291505056fea26469706673582212208ff3088f4ebe17eb4935b00384b8df28819c461e746288b6a1cc052afacdb3ec64736f6c634300081a0033",
  "linkReferences": {},
  "deployedLinkReferences": {}
}